:100000000C9446000C9465000C9465000C946500FB
:100010000C9465000C9465000C9465000C946500CC
:100020000C9465000C9465000C9465000C946500BC
:100030000C9465000C94DE000C9465000C94650033
:100040000C9465000C9465000C9465000C9465009C
:100050000C9465000C9465000C9465000C9465008C
:100060000C9465000C9465000C9465000C9465007C
:100070000C9465000C9465000C9465000C9465006C
:100080000C9465000C9465000C94650011241FBE4F
:10009000CFEFD0E4DEBFCDBF11E0A0E0B1E0EEEEE7
:1000A000F5E000E00BBF02C007900D92A231B1074E
:1000B000D9F721E0A2E1B1E001C01D92AC31B20755
:1000C000E1F70E949E020C94E7020C940000CF938B
:1000D000DF9300D00F92CDB7DEB789837B836A832D
:1000E00089818A3031F48A819B81BC018DE00E9434
:1000F000670080EC90E0FC018081882F90E08072A6
:100100009927892BB1F386EC90E02981FC012083AB
:1001100080E090E00F900F900F90DF91CF910895C5
:10012000CF93DF93CDB7DEB781E890E02BE0FC0101
:10013000208388E890E02DE730E0FC0131832083C4
:100140008FE690E022E0FC01208384E890E0FC014F
:100150001182108280910E0190910F01A0911001E7
:10016000B09111018093130190931401A093150194
:10017000B09316018FE590E0FC0120818FE590E0BF
:100180002068FC0120830000DF91CF910895CF9378
:10019000DF93CDB7DEB781E890E0FC01108200006C
:1001A000DF91CF910895CF93DF93CDB7DEB781E094
:1001B000809312010000DF91CF9108951F920F925A
:1001C0000FB60F9211240BB60F922F933F934F93BC
:1001D0005F936F937F938F939F93AF93BF93EF93AF
:1001E000FF93CF93DF93CDB7DEB78091130190914A
:1001F0001401A0911501B09116010197A109B1094F
:100200008093130190931401A0931501B0931601EC
:100210008091130190911401A0911501B0911601E4
:10022000892B8A2B8B2B91F40E94D30080910E0195
:1002300090910F01A0911001B091110180931301D1
:1002400090931401A0931501B09316010000DF9163
:10025000CF91FF91EF91BF91AF919F918F917F913E
:100260006F915F914F913F912F910F900BBE0F9027
:100270000FBE0F901F901895CF93DF9300D000D042
:10028000CDB7DEB769837A838B839C8389819A811A
:10029000AB81BC8180930E0190930F01A09310015C
:1002A000B093110180910E0190910F01A091100166
:1002B000B09111018093130190931401A093150143
:1002C000B093160100000F900F900F900F90DF91E8
:1002D000CF910895CF93DF93CDB7DEB7809118010A
:1002E00090911901CC01A0E0B0E087309105A10503
:1002F000B10508F0E9C087519D4FFC010C94DE0266
:1003000081E090E09093190180931801E4C08091FE
:100310001B01882F90E081709927892B39F082E0AA
:1003200090E0909319018093180115C080911B01F2
:10033000882F90E082709927892B39F084E090E033
:10034000909319018093180106C081E090E090938A
:1003500019018093180180911B01882F90E0837010
:100360009927039709F0B2C086E090E090931901B5
:1003700080931801ABC083E090E0909319018093C3
:1003800018011092170180911B01882F90E0837053
:100390009927039709F09CC086E090E0909319019B
:1003A0008093180195C080911B01882F90E0817087
:1003B0009927892BB1F0809117018A3091F48091AF
:1003C0001A01893028F480911A018F5F80931A01F5
:1003D00083E090E090931901809318011092170127
:1003E0007AC080911B01882F90E081709927892B1A
:1003F00039F481E090E090931901809318016BC06B
:1004000083E090E090931901809318018091170187
:100410008F5F809317015FC085E090E09093190192
:10042000809318011092170180911B01882F90E092
:1004300083709927039709F04DC086E090E0909370
:1004400019018093180146C080911B01882F90E00C
:1004500082709927892BB1F0809117018A3091F42D
:1004600080911A01882329F080911A01815080938C
:100470001A0185E090E09093190180931801109281
:10048000170129C080911B01882F90E08270992765
:10049000892B39F481E090E0909319018093180141
:1004A0001AC085E090E09093190180931801809123
:1004B00017018F5F809317010EC081E090E0909349
:1004C00019018093180107C0000005C0000003C097
:1004D000000001C000008091180190911901CC0129
:1004E000A0E0B0E087309105A105B105E0F48051AE
:1004F0009D4FFC010C94DE0280911A018930B8F402
:1005000080911A018F5F80931A0111C080911A01A6
:10051000882379F080911A01815080931A0109C0D3
:1005200010921A0107C0000005C0000003C00000BF
:1005300001C000000000DF91CF910895CF93DF93B9
:10054000CDB7DEB781E290E0FC01108282E290E05C
:100550002FEFFC01208384E290E02FEFFC01208349
:1005600085E290E027E0FC01208364E670E080E013
:1005700090E00E943C010E9490001092190110929C
:10058000180183E290E0FC01808180931A0180E2EF
:1005900090E0FC018081809580931B010E946A019C
:1005A00085E290E020911A01FC01208300008091F7
:1005B00012018823E1F310921201E9CFEE0FFF1F21
:1005C0000024001C0BBE0790F691E02D0994F894CE
:1005D000FFCF80018701BB01D3010C0224025D0221
:0E05E000950295027C02950286029502900219
:1005EE000000000200000000670000000000010093
:0205FE000000FB
:00000001FF
